:020000040800F2
:1000000070070020550100082F0A00082D0A00087B
:1000100000000000000000000000000000000000E0
:10002000000000000000000000000000330A00088B
:100030000000000000000000310A0008350A000836
:100040006701000800000000670100086701000860
:1000500067010008670100086701000867010008E0
:100060000000000067010008670100086701000840
:100070006701000867010008670100080000000030
:100080006701000800000000000000006701000890
:100090000000000067010008670100086701000810
:1000A0000000000067010008000000006701000870
:1000B00000F002F800F03EF80CA030C80838241810
:1000C0002D18671EA246AB4654465D46AC4201D190
:1000D00000F030F87E460F3EB6460FCC0126334284
:1000E00000D0FB1A3343A246AB461847A00D0000D0
:1000F000C00D0000103A02D378C878C1FAD8520770
:1001000001D330C830C101D504680C6070470000CD
:100110000023002400250026103A01D378C1FBD823
:10012000520700D330C100D50B6070471FB51FBD0B
:1001300010B510BD00F04DF81146FFF7F7FF00F0C5
:10014000C9FC00F065F803B4FFF7F2FF03BC00F050
:100150006BF800000748804707480047FEE7FEE7C6
:10016000FEE7FEE7FEE7FEE704480549054A064BC1
:10017000704700007D0A0008B100000870010020EF
:1001800070070020700300207003002001E004C00D
:10019000091F0429FBD28B0701D50280801CC907E7
:1001A00000D00270704700290BD0C30702D0027044
:1001B000401C491E022904D3830702D50280801CFB
:1001C000891EE3E70022EEE70022DFE77047704771
:1001D0007047754600F024F8AE4605006946534660
:1001E000C008C000854618B020B5FFF7BDFF60BC51
:1001F000B64600260027C0C5C0C5C0C5C0C5C0C51D
:10020000C0C5C0C5C0C5403D490849008D467047BE
:1002100010B50446C046C0462046FFF794FF10BD07
:10022000004870470801002001491820ABBEFEE7D6
:100230002600020070470000F0B58AB00A68002A64
:1002400000D1B5E004465B48844201D0052000E0BF
:1002500003200090012000231F46029005460491D0
:1002600008930695681E029E079086403240002A39
:1002700000D192E0059703924A681020104312289B
:1002800010D10D461C20059908400F218140079A86
:10029000D3089B00E3181F6A8F43296981403943C3
:1002A00019626A6803210846089DA84023688343B1
:1002B000174601910F40AF401F432760C043122AE9
:1002C00013D8012393403D490B420ED0A36803404D
:1002D0000499CF68AF401F43A760D306DB0F07998F
:1002E0008B406768B7431F436760E3680340049926
:1002F0008868A8401843E060D000039D059F4CD556
:100300005648024600680121084310601068084002
:1003100009900C263E400F23B340079F0198874366
:1003200009982748024638589843BF180923DB0626
:100330009C4208D0234A944206D023498C4200991B
:1003400002D1022100E00021B140014339601A4E80
:10035000326804994868C30301D52A4300E0AA43E0
:10036000059F3260726883030BD52A437260B268BE
:10037000C3020BD4AA43B260F26880020BD4AA4332
:100380000AE0AA437260B268C302F3D52A43B2609E
:10039000F2688002F3D52A43F2600A681046069D8F
:1003A000E840089B9B1C3F1D6D1C002800D057E7B0
:1003B0000AB0F0BD000C0048000401400600060031
:1003C000080001400004004800080048002A02D04C
:1003D00018228150704728228150704704480068D5
:1003E0007047C04602480168491C01607047C0461A
:1003F0006801002010B58048016810220A4302609D
:100400000024204600F004F800F014F8204610BD47
:10041000B0B5044600F000F97D21C90000F026FCCB
:1004200000F0EAFA0025E84321462A4600F018F8D1
:100430002846B0BD82B0094801680122114301601D
:100440000168114001910199110742680A43426015
:10045000406808400090009802B0704718100240B1
:10046000002805DB0322034693430B4A9A1806E053
:100470000F220240083A03239A43084BD218800700
:10048000C00E8901C9B28140FF23834010689843A0
:10049000084310607047C04600E400E01CED00E037
:1004A000F0B581B00D46544A116801242140A9429B
:1004B00008D211680126B143294311601168314007
:1004C000A9427FD101688A074C4B07D51A68F023EF
:1004D0009A4383681343494A1360484B0090C90705
:1004E00028D14549086801263040A842009A07D91A
:1004F0000868B0432843086008683040A84261D1CA
:100500001078400706D50720000219688143D0689B
:100510000843186019680C220A403A48082A1AD180
:100520008A02120F384B9C5C344B9A6AC9034CD434
:10053000374851E0009841681A1F012904D1126818
:10054000920326463ED50BE01268022905D192019E
:10055000264637D504E004463FE09207264631D5CB
:10056000044618680326B04308431860FFF736FFB7
:1005700007466068224C01280ED0204B022817D174
:1005800018680C2101400829ABD0FFF727FF1B4B4F
:10059000C01BA042F4D915E0184B18680C2101408B
:1005A00004299ED0FFF71AFFC01BA042F4D909E02E
:1005B00018680007800F94D0FFF710FF0F4BC01B87
:1005C000A042F5D9304601B0F0BD0F210A400F49D5
:1005D000895C00F04BFB094B444318680006000F90
:1005E0000C49085CC4400E48046000263046FFF702
:1005F0000FFF304601B0F0BD002002400410024061
:100600008813000000127A006A0E00087A0E0008B3
:1006100000093D005A0E0008014800687047C046B6
:1006200000000020F0B585B007460078C007EF4E07
:10063000039757D071680C200140042906D07168D7
:10064000014008290BD17068C00308D530688003C9
:1006500048D57868002845D1012005B0F0BD7968FB
:10066000002904D001291AD1012001041FE0012032
:10067000010432688A433260810432688A433260FE
:100680004404FFF7ABFE0546039F3068204229D0A3
:10069000FFF7A4FE411B03206429F6D99EE13068D0
:1006A000052907D101218A0410433060090430680C
:1006B000084306E001210A04904330608904306851
:1006C0008843306001204404FFF788FE0546306807
:1006D000204207D1FFF782FE401B6428F7D9032090
:1006E00005B0F0BD387880072FD570680007800FFF
:1006F0001DD070680C210140082902D17068C00328
:1007000015D5F9683068002900D1B4E0012108430B
:100710003060FFF763FE0546306880070ED4FFF7B0
:100720005DFE401B0228F7D9032005B0F0BD3068FC
:10073000800703D5F868012800D0C4E03068F821AC
:1007400088433969C900014331603878000725D5ED
:10075000F969706A002910D0012108437062FFF71F
:100760003DFE0546706A800718D4FFF737FE401B30
:100770000228F7D9032005B0F0BD0121884370623B
:10078000FFF72CFE0546706A800707D5FFF726FEA7
:10079000401B0228F7D9032005B0F0BD3878400788
:1007A0001DD43878C00600D4C6E0039C61690129D5
:1007B00053D1706B042101437163706B01210143BC
:1007C0007163FFF70BFE0546706B80074BD4FFF794
:1007D00005FE401B0228F7D9032005B0F0BD012219
:1007E0001107F069C0000091029206D50020019027
:1007F0007F4F3868C0051FD40BE0F0690843F061F3
:10080000F0690840049004980192794F3868C00557
:1008100012D402980402386820433860FFF7DEFDE6
:1008200005463868204207D1FFF7D8FD401B6428F1
:10083000F7D9032005B0F0BD039881686D4F0029FA
:100840002BD0012905D0306A052953D10421084352
:100850003062306A0299084352E0706B491D35D10D
:10086000042188437063706BF8218843A169C90033
:100870000143716360E0012188433060FFF7AEFD02
:1008800005463068800700D45FE7FFF7A7FD401BEF
:100890000228F6D9032005B0F0BD306A02998843DA
:1008A0003062306A042188433062FFF797FD0546C5
:1008B000306A800733D5FFF791FD401BB842F7D966
:1008C000032005B0F0BD012005B0F0BD04210843B0
:1008D0007063706B012188437063FFF77FFD0546ED
:1008E000706B800728D5FFF779FD411B0320022993
:1008F000F6D973E0029988433062306A0421884354
:100900003062FFF76BFD0546306A800707D4FFF7BA
:1009100065FD401BB842F7D9032005B0F0BD019832
:100920000028039F00D13CE7F06900998843F061FB
:100930003878C00600D538E70398076A0022002FF0
:1009400007D070680C210140082905D1012005B0AD
:10095000F0BD104605B0F0BD0292012421063068BA
:10096000019188433060FFF739FD0546022F0AD117
:1009700067063068384211D0FFF730FD411B032075
:100980000229F6D92AE064063068204228D0FFF711
:1009900025FD411B03200329F6D31FE0F06A0F2138
:1009A0008843039AD16A0143F1623D2000047168D3
:1009B0008143906A0843516A01437160306801992C
:1009C00008433060FFF70AFD0446306838420AD118
:1009D000FFF704FD011B03200229F6D905B0F0BD85
:1009E000029805B0F0BD029805B0F0BD00100240BD
:1009F0000070004088130000401E010E01D001204D
:100A000070470749074A5060074803680B400321B5
:100A10008907591801600020906007211160704714
:100A2000FFFFFF0010E000E020ED00E0FEE7704770
:100A30007047704780B5FFF7D5FC80BDB0B590B06A
:100A400004AD281D2C21FFF7BFFB00240C941020BF
:100A5000089001200790022004902846FFF7E2FD4D
:100A600090200290019407200090000203906846B5
:100A70002146FFF715FD10B0B0BD00001248026816
:100A800001210A4302604268104B13404360026830
:100A90000F4B134003608A040368934303603F22B3
:100AA0001204436893434360C26A0F239A43C262AD
:100AB000FF221432036B93430363426B8A43426306
:100AC000002181607047C046001002400CB8FF084A
:100AD000FFFFF6FE86B0FFF78DFCFFF7AFFF0024A7
:100AE00005940127780414490A6802430A600968DA
:100AF0000140009100980920C506104E2846314655
:100B00002246FFF763FC049403940297019601A91F
:100B10002846FFF791FB254603E0284600F010F831
:100B20006D1CC82DF9D1FF2503E0284600F008F818
:100B30006D1E392DF9D2EEE714100240FF060000B9
:100B4000F0B587B00446012738022018C117090EF6
:100B50004218FF21C9430A40801A069020464130BE
:100B6000C217120E82180A40801A0590204656308D
:100B7000C217120E82180A40801A049020466B3069
:100B8000C217120E82180A40801A03902046813044
:100B9000C217120E82180A40801A02902046963020
:100BA000C217120E82180A40801A01902046AB30FC
:100BB000C217120E82180A40801A00902046C130D7
:100BC000C217120E82180A40831A2046D630C21766
:100BD000120E82180A40801AEB34E217120EA21885
:100BE0000A40A41A00251F4E38E032570699715664
:100BF0008D42394600DB0021954200DA891C3256CD
:100C0000954200DA091DF256954200DA0831009A41
:100C1000B256954201DA10221143019AB25695421A
:100C200001DA20221143029AB256954201DA40229B
:100C30001143039AB256954201DA80221143049A75
:100C4000B256954201DA7A021143059AB25695429C
:100C500001DABA021143044A11606D1C962DC4D109
:100C600007B0F0BD040000201400004843088B4288
:100C70001AD3002203098B4279D3030A8B425ED335
:100C8000030B8B4242D3030C8B4227D30902FF2272
:100C900012BA030C8B4202D31212090203D0030BC7
:100CA0008B4233D31AE0D3E0411A8041401C704795
:100CB00003460B4371D443088B42F5D3002203094A
:100CC0008B4254D3030A8B4239D3030B8B421DD37F
:100CD000030C8B4202D394466EE0090AC30B8B428D
:100CE00001D3CB03C01A5241830B8B4201D38B0338
:100CF000C01A5241430B8B4201D34B03C01A5241DD
:100D0000030B8B4201D30B03C01A5241C30A8B421F
:100D100001D3CB02C01A5241830A8B4201D38B020A
:100D2000C01A5241430A8B4201D34B02C01A5241AE
:100D3000030A8B4201D30B02C01A5241CDD2C30920
:100D40008B4201D3CB01C01A524183098B4201D39C
:100D50008B01C01A524143098B4201D34B01C01A87
:100D6000524103098B4201D30B01C01A5241C308FF
:100D70008B4201D3CB00C01A524183088B4201D36E
:100D80008B00C01A524143088B4201D34B00C01A5A
:100D90005241411A524110007047CA0F00D04942D7
:100DA000031000D34042534000229C4603098B426B
:100DB0002DD3030A8B4212D38901FC2212BA030AF3
:100DC0008B420CD3890192118B4208D38901921175
:100DD0008B4204D3890137D0921100E08909C309FD
:100DE0008B4201D3CB01C01A524183098B4201D3FC
:100DF0008B01C01A524143098B4201D34B01C01AE7
:100E0000524103098B4201D30B01C01A5241C3085E
:100E10008B4201D3CB00C01A524183088B4201D3CD
:100E20008B00C01A5241D9D243088B4201D34B00E8
:100E3000C01A5241411A00D201465241104663463F
:100E40005B1000D34042704763465B1000D34042C2
:100E500001B50020C046C04602BD000000000000F1
:100E6000000001020304060708090203040506073F
:100E700008090A0B0C0D0E0F1010010203040506E1
:100E80000708090A0B0C0D0E0F100000B00E000829
:100E90000000002008010000F4000008B80F00085E
:100EA0000801002068060000100100080000000092
:100EB00000127A00000306090C0F1215191C1F22DC
:100EC00025282B2E3235383B3E4144474B4E51545A
:100ED000575A5D6064605D5A5754514E4B474441C8
:100EE0003E3B3835322E2B2825221F1C1915120F98
:100EF0000C090603000000000000000000000000D4
:100F000000000000000000000000000000000000E1
:100F100000000000000000000000000000000000D1
:100F200000000000000000000000000000000000C1
:100F300000000000000000000000000000000000B1
:100F400000000000000000000000000000000000A1
:100F50000000000000000000000000000000000091
:100F60000000000000000000000000000000000081
:100F70000000000000000000000000000000000071
:100F80000000000000000000000000000000000061
:100F90000000000000000000000000000000000051
:100FA0000000000000000000000000000000000041
:080FB000000000000000000039
:04000005080000B13E
:00000001FF
